:020000040000FA
:100000000C9463000C948B000C948B000C94720382
:100010000C9472030C9472030C948B000C948B0060
:100020000C948B000C948B000C948B000C948B0024
:100030000C948B000C948B000C948B000C948B0014
:100040000C94D0020C948B000C9440030C941A0373
:100050000C948B000C948B000C948B000C948B00F4
:100060000C948B000C948B000000000024002700EF
:100070002A0000000008000201000003040700003D
:1000800000000000000000000000230026002900FE
:1000900000000000250028002B00040404040404D0
:1000A0000404020202020202030303030303010227
:1000B00004081020408001020408102001020408F6
:1000C0001020EA03E70511241FBECFEFD8E0DEBF02
:1000D000CDBF11E0A0E0B1E0ECE2FCE002C0059091
:1000E0000D92AE33B107D9F722E0AEE3B1E001C023
:1000F0001D92A734B207E1F710E0C2E6D0E004C0D9
:100100002197FE010E940306C136D107C9F70E945C
:1001100095040C9409060C94000090E0FC01EE5844
:10012000FF4F2491FC01E255FF4F3491FC01E6564C
:10013000FF4FE491EE23C9F0222339F0233001F17F
:10014000A8F4213019F1223029F1F0E0EE0FFF1F61
:10015000E057FF4FA591B4918FB7F894EC916111DE
:1001600026C030953E233C938FBF08952730A9F0D9
:100170002830C9F0243049F7809180008F7D03C07A
:10018000809180008F7780938000DFCF84B58F7758
:1001900084BDDBCF84B58F7DFBCF8091B0008F779E
:1001A0008093B000D2CF8091B0008F7DF9CF3E2BED
:1001B000DACFCF93DF9390E0FC01E255FF4F24911B
:1001C00086569F4FFC0184918823D1F090E0880FE0
:1001D000991FFC01E859FF4FA591B491FC01E0572C
:1001E000FF4FC591D49161110EC09FB7F8948C91C7
:1001F000E22FE0958E238C932881E223E8839FBF32
:10020000DF91CF9108958FB7F894EC91E22BEC93A6
:100210008FBFF6CFAF92BF92CF92DF92EF92FF9255
:100220000F931F93CF93DF936C017B018B01040F1E
:10023000151FEB015E01AE18BF08C017D10759F0BA
:100240006991D601ED91FC910190F081E02DC601FC
:100250000995892B79F7C501DF91CF911F910F91F6
:10026000FF90EF90DF90CF90BF90AF900895FC018A
:10027000538D448D252F30E0842F90E0821B930B0B
:10028000541710F0CF96089501970895FC01918DB1
:10029000828D981761F0A28DAE0FBF2FB11D5D96B4
:1002A0008C91928D9F5F9F73928F90E008958FEF56
:1002B0009FEF0895FC01918D828D981731F0828D0A
:1002C000E80FF11D858D90E008958FEF9FEF089561
:1002D000FC01918D228D892F90E0805C9F4F821BC5
:1002E00091098F73992708958BE891E00E94680126
:1002F00021E0892B09F420E0822F089580E090E02E
:10030000892B29F00E94740181110C94000008953A
:10031000FC01A48DA80FB92FB11DA35ABF4F2C917A
:10032000848D90E001968F739927848FA689B78971
:100330002C93A089B1898C91837080648C93938D68
:10034000848D981306C00288F389E02D80818F7D0B
:1003500080830895EF92FF920F931F93CF93DF93C3
:10036000EC0181E0888F9B8D8C8D98131AC0E889F1
:10037000F989808185FF15C09FB7F894EE89FF89C0
:100380006083E889F98980818370806480839FBF5E
:1003900081E090E0DF91CF911F910F91FF90EF905E
:1003A0000895F62E0B8D10E00F5F1F4F0F7311276E
:1003B000E02E8C8D8E110CC00FB607FCFACFE889A9
:1003C000F989808185FFF5CFCE010E948801F1CFA8
:1003D000EB8DEC0FFD2FF11DE35AFF4FF0829FB71D
:1003E000F8940B8FEA89FB8980818062CFCFCF930D
:1003F000DF93EC01888D8823B9F0AA89BB89E8894D
:10040000F9898C9185FD03C0808186FD0DC00FB6F2
:1004100007FCF7CF8C9185FFF2CF808185FFEDCF70
:10042000CE010E948801E9CFDF91CF9108952091FC
:100430008001309181012817390771F490917E0174
:1004400080917F01981741F0E0917E01F0E0E25C3D
:10045000FE4F808190E008958FEF9FEF08950895FB
:10046000EF92FF920F931F93CF93DF93DC015C9683
:10047000ED90FC905D97E114F10479F481E090E057
:1004800013969C938E93129790E080E0DF91CF912A
:100490001F910F91FF90EF9008955196ED91FC916F
:1004A000529750968C915097982F90950FB75E96D3
:1004B0002C915E97122F127021FD6095F894208187
:1004C000112319F1282B2083E7012197F1F728E068
:1004D000462F50E0308160FF1AC0382B3083E7018F
:1004E0002197F1F7BA0175956795215089F7112386
:1004F00081F08081892380830FBF5C968D919C91D0
:100500000197F1F781E090E0C1CF2923DCCF3923B7
:10051000E5CF9081892BEFCF20918001309181012F
:100520002817390761F480917F0120917E0190E0C6
:10053000805C9F4F821B91098F739927089590E0EB
:1005400080E00895209180013091810128173907BA
:10055000B9F490917E0180917F01981789F0E09124
:100560007E01F0E0E25CFE4F808120917E0130E070
:100570002F5F3F4F2F73332720937E0190E0089524
:100580008FEF9FEF089590E080E0089561E0853659
:1005900019F0813621F460E08DE00C948D0008950F
:1005A0001F920F920FB60F9211242F933F938F93A8
:1005B0009F93AF93BF938091870190918801A09101
:1005C0008901B0918A013091860123E0230F2D37F4
:1005D00058F50196A11DB11D2093860180938701D6
:1005E00090938801A0938901B0938A018091820140
:1005F00090918301A0918401B09185010196A11D84
:10060000B11D8093820190938301A0938401B093E4
:100610008501BF91AF919F918F913F912F910F9045
:100620000FBE0F901F90189526E8230F0296A11D6C
:10063000B11DD2CF1F920F920FB60F9211242F939C
:100640003F934F935F936F937F938F939F93AF935A
:10065000BF93EF93FF938BE891E00E948801FF9195
:10066000EF91BF91AF919F918F917F916F915F912A
:100670004F913F912F910F900FBE0F901F901895A3
:100680001F920F920FB60F9211242F938F939F9367
:10069000EF93FF93E0919B01F0919C018081E091A9
:1006A000A101F091A20182FD1BC090818091A40163
:1006B0008F5F8F732091A501821741F0E091A40113
:1006C000F0E0E557FE4F958F8093A401FF91EF91E5
:1006D0009F918F912F910F900FBE0F901F901895A3
:1006E0008081F4CF1F920F920FB60F9211242F9397
:1006F0003F934F935F936F937F938F939F93AF93AA
:10070000BF93EF93FF93E0918001F09181013097C7
:1007100049F0A685B7858585968D91FF14C09C917B
:100720008923A1F4FF91EF91BF91AF919F918F9198
:100730007F916F915F914F913F912F910F900FBEDD
:100740000F901F9018959C91892361F7A389B48914
:100750009C918589809589238C93868997890197B7
:10076000F1F7608D718DA685B785558538E020E05D
:10077000CB010197F1F7822F90E095958795282F6F
:100780004C91452309F02068315091F7868D81FD09
:10079000209580917F0190E001968F739927309189
:1007A0007E01381799F0A0917F01B0E0A25CBE4FA6
:1007B0002C9380937F01828D938D0197F1F7A3890C
:1007C000B4898C919589892B8C93ACCF868D81606F
:1007D000868FF1CF10928E0110928D0188EE93E0FA
:1007E000A0E0B0E080938F0190939001A0939101DD
:1007F000B093920124E031E030938C0120938B017F
:1008000025EC30E0309398012093970124EC30E000
:1008100030939A012093990120EC30E030939C01B1
:1008200020939B0121EC30E030939E0120939D01A9
:1008300022EC30E03093A00120939F0126EC30E0C1
:100840003093A2012093A1011092A4011092A5015E
:100850001092A6011092A70110922B0210922A0268
:1008600080932C0290932D02A0932E02B0932F021E
:1008700086E191E0909329028093280210923F0232
:1008800010923E02109241021092400210924302D6
:100890001092420210924502109244026091460268
:1008A0006E7F6D7F609346026695617081E0682778
:1008B0008BE00E948D0061E08BE00E94D900E9EBA3
:1008C000F0E0E491E0933802E5EAF0E0E491F0E052
:1008D000EE0FFF1FE057FF4F8591949190933A02DE
:1008E0008093390260E08AE00E94D900809146023C
:1008F00081FD04C061E08AE00E948D008AE080935F
:100900003402E8EBF0E0E491E0933502E4EAF0E051
:10091000E491F0E0EE0FFF1FEA57FF4F85919491AD
:1009200090933702809336020895789484B582605C
:1009300084BD84B5816084BD85B5826085BD85B583
:10094000816085BD80916E00816080936E00109201
:10095000810080918100826080938100809181007C
:10096000816080938100809180008160809380000D
:100970008091B10084608093B1008091B00081606B
:100980008093B00080917A00846080937A00809197
:100990007A00826080937A0080917A0081608093EF
:1009A0007A0080917A00806880937A001092C1006A
:1009B000E0919B01F0919C0182E08083E09197019E
:1009C000F09198011082E0919901F0919A018FECD9
:1009D00080831092A301E0919F01F091A00186E035
:1009E0008083E0919D01F0919E01808180618083F0
:1009F000E0919D01F0919E01808188608083E0916B
:100A00009D01F0919E01808180688083E0919D012D
:100A1000F0919E0180818F7D808345E150E064E20A
:100A200071E08BE891E00E940A0142E050E06AE345
:100A300071E08BE891E00E940A011092430210924B
:100A40004202109241021092400210923F02109214
:100A50003E028DE991E0909345028093440290918B
:100A60003402963108F047C02DEB30E030933F025E
:100A700020933E022BE931E0309341022093400263
:100A80002CE231E03093430220934202209168002F
:100A900084E0983048F031E09E3008F430E081E0A6
:100AA00001C0880F3A95EAF7822B809368002DE603
:100AB00030E0983050F02BE630E09E3030F02CE6FD
:100AC00030E0963110F030E020E030933C0220938B
:100AD0003B02292F30E0983008F06CC081E001C063
:100AE000880F9A95EAF780933D0280914402909195
:100AF00045020197F1F78091420290914302892BC0
:100B000049F1E0918001F091810182E0E832F8073B
:100B100009F1309739F0A389B4899C918589809532
:100B200089238C93809146028E7F80934602109297
:100B30007F0110927E0188E292E090938101809380
:100B40008001E0913B02F0913C02808190913D0256
:100B5000892B808361E08DE00E94D90000E010E0E5
:100B60008BE891E00E9468011816190634F48BE8AE
:100B700091E00E9446010E94C60288E292E00E9433
:100B80008C021816190664F488E292E00E94A20210
:100B9000C82F0E94C6026C2F8BE891E00E94AA0128
:100BA00001151105E9F20E9474018823C9F20E941F
:100BB0000000D6CF9E3040F42850310981E001C0BA
:100BC000880F2A95EAF78FCF2E503109F7CF86E1AB
:100BD00091E0909329028093280280918001909166
:100BE00081018852924071F4E0913B02F0913C0205
:100BF000908180913D0280958923808310928101AC
:100C0000109280010895EE0FFF1F0590F491E02DE2
:100C1000099410E0C2E6D0E004C0FE010E94030681
:100C20002196C336D107C9F7F894FFCF0000000022
:100C3000AA010A013701F701680146015A010000C3
:100C4000000030020A01C3022F028C02A202170226
:100C50004C6973746F20436F6E6578696F6E2053B3
:0A0C6000657269616C000D0A000066
:107E0000112484B714BE81FFF0D085E080938100F7
:107E100082E08093C00088E18093C10086E0809377
:107E2000C20080E18093C4008EE0C9D0259A86E02C
:107E300020E33CEF91E0309385002093840096BBD3
:107E4000B09BFECF1D9AA8958150A9F7CC24DD24C4
:107E500088248394B5E0AB2EA1E19A2EF3E0BF2EE7
:107E6000A2D0813461F49FD0082FAFD0023811F036
:107E7000013811F484E001C083E08DD089C08234E0
:107E800011F484E103C0853419F485E0A6D080C0E4
:107E9000853579F488D0E82EFF2485D0082F10E0AE
:107EA000102F00270E291F29000F111F8ED06801E7
:107EB0006FC0863521F484E090D080E0DECF843638
:107EC00009F040C070D06FD0082F6DD080E0C81688
:107ED00080E7D80618F4F601B7BEE895C0E0D1E017
:107EE00062D089930C17E1F7F0E0CF16F0E7DF06D8
:107EF00018F0F601B7BEE89568D007B600FCFDCFD4
:107F0000A601A0E0B1E02C9130E011968C91119780
:107F100090E0982F8827822B932B1296FA010C0160
:107F200087BEE89511244E5F5F4FF1E0A038BF0790
:107F300051F7F601A7BEE89507B600FCFDCF97BE46
:107F4000E89526C08437B1F42ED02DD0F82E2BD052
:107F50003CD0F601EF2C8F010F5F1F4F84911BD097
:107F6000EA94F801C1F70894C11CD11CFA94CF0C13
:107F7000D11C0EC0853739F428D08EE10CD085E9AC
:107F80000AD08FE07ACF813511F488E018D01DD067
:107F900080E101D065CF982F8091C00085FFFCCF94
:107FA0009093C60008958091C00087FFFCCF809118
:107FB000C00084FD01C0A8958091C6000895E0E648
:107FC000F0E098E1908380830895EDDF803219F02E
:107FD00088E0F5DFFFCF84E1DECF1F93182FE3DFCA
:107FE0001150E9F7F2DF1F91089580E0E8DFEE27F6
:047FF000FF270994CA
:027FFE00040479
:00000001FF
